{
  "_format": "hh-sol-artifact-1",
  "contractName": "SimpleEarn",
  "sourceName": "contracts/Earn.sol",
  "abi": [
    {
      "inputs": [],
      "name": "AnnualIntrestRate",
      "outputs": [
        {
          "internalType": "uint256",
          "name": "",
          "type": "uint256"
        }
      ],
      "stateMutability": "view",
      "type": "function"
    },
    {
      "inputs": [],
      "name": "deposit",
      "outputs": [],
      "stateMutability": "payable",
      "type": "function"
    },
    {
      "inputs": [
        {
          "internalType": "address",
          "name": "",
          "type": "address"
        },
        {
          "internalType": "uint256",
          "name": "",
          "type": "uint256"
        }
      ],
      "name": "deposits",
      "outputs": [
        {
          "internalType": "uint256",
          "name": "amount",
          "type": "uint256"
        },
        {
          "internalType": "uint256",
          "name": "timestamp",
          "type": "uint256"
        }
      ],
      "stateMutability": "view",
      "type": "function"
    },
    {
      "inputs": [
        {
          "internalType": "address",
          "name": "_address",
          "type": "address"
        }
      ],
      "name": "getDepositHistory",
      "outputs": [
        {
          "components": [
            {
              "internalType": "uint256",
              "name": "amount",
              "type": "uint256"
            },
            {
              "internalType": "uint256",
              "name": "timestamp",
              "type": "uint256"
            }
          ],
          "internalType": "struct SimpleEarn.Deposit[]",
          "name": "",
          "type": "tuple[]"
        }
      ],
      "stateMutability": "view",
      "type": "function"
    },
    {
      "inputs": [
        {
          "internalType": "address",
          "name": "user",
          "type": "address"
        }
      ],
      "name": "getTotalBalanceWithInterest",
      "outputs": [
        {
          "internalType": "uint256",
          "name": "",
          "type": "uint256"
        }
      ],
      "stateMutability": "view",
      "type": "function"
    },
    {
      "inputs": [
        {
          "internalType": "address",
          "name": "_address",
          "type": "address"
        }
      ],
      "name": "getWithdrawalHistory",
      "outputs": [
        {
          "components": [
            {
              "internalType": "uint256",
              "name": "amount",
              "type": "uint256"
            },
            {
              "internalType": "uint256",
              "name": "timestamp",
              "type": "uint256"
            }
          ],
          "internalType": "struct SimpleEarn.Withdrawal[]",
          "name": "",
          "type": "tuple[]"
        }
      ],
      "stateMutability": "view",
      "type": "function"
    },
    {
      "inputs": [
        {
          "internalType": "address",
          "name": "",
          "type": "address"
        }
      ],
      "name": "userTotalBalance",
      "outputs": [
        {
          "internalType": "uint256",
          "name": "",
          "type": "uint256"
        }
      ],
      "stateMutability": "view",
      "type": "function"
    },
    {
      "inputs": [
        {
          "internalType": "uint256",
          "name": "withdrawalAmount",
          "type": "uint256"
        }
      ],
      "name": "withdraw",
      "outputs": [],
      "stateMutability": "payable",
      "type": "function"
    },
    {
      "inputs": [
        {
          "internalType": "address",
          "name": "",
          "type": "address"
        },
        {
          "internalType": "uint256",
          "name": "",
          "type": "uint256"
        }
      ],
      "name": "withdrawals",
      "outputs": [
        {
          "internalType": "uint256",
          "name": "amount",
          "type": "uint256"
        },
        {
          "internalType": "uint256",
          "name": "timestamp",
          "type": "uint256"
        }
      ],
      "stateMutability": "view",
      "type": "function"
    },
    {
      "stateMutability": "payable",
      "type": "receive"
    }
  ],
  "bytecode": "0x608060405234801561001057600080fd5b50611a39806100206000396000f3fe60806040526004361061008a5760003560e01c80635a33c3da116100595780635a33c3da14610158578063821a3e671461019557806394ccb734146101d2578063d0e30db01461020f578063d6d681771461021957610091565b80632697a7c2146100965780632e1a7d4d146100c15780633114740e146100dd578063422b10771461011a57610091565b3661009157005b600080fd5b3480156100a257600080fd5b506100ab610257565b6040516100b8919061112d565b60405180910390f35b6100db60048036038101906100d69190611179565b61025d565b005b3480156100e957600080fd5b5061010460048036038101906100ff9190611204565b610b50565b604051610111919061131e565b60405180910390f35b34801561012657600080fd5b50610141600480360381019061013c9190611340565b610c02565b60405161014f929190611380565b60405180910390f35b34801561016457600080fd5b5061017f600480360381019061017a9190611204565b610c43565b60405161018c9190611487565b60405180910390f35b3480156101a157600080fd5b506101bc60048036038101906101b79190611204565b610cf4565b6040516101c9919061112d565b60405180910390f35b3480156101de57600080fd5b506101f960048036038101906101f49190611204565b610d0c565b604051610206919061112d565b60405180910390f35b610217610e72565b005b34801561022557600080fd5b50610240600480360381019061023b9190611340565b610f9f565b60405161024e929190611380565b60405180910390f35b6101f481565b600081116102a0576040517f08c379a00000000000000000000000000000000000000000000000000000000081526004016102979061152c565b60405180910390fd5b80600260003373ffffffffffffffffffffffffffffffffffffffff1673ffffffffffffffffffffffffffffffffffffffff168152602001908152602001600020541015610322576040517f08c379a000000000000000000000000000000000000000000000000000000000815260040161031990611598565b60405180910390fd5b600080600160003373ffffffffffffffffffffffffffffffffffffffff1673ffffffffffffffffffffffffffffffffffffffff168152602001908152602001600020905060005b6000803373ffffffffffffffffffffffffffffffffffffffff1673ffffffffffffffffffffffffffffffffffffffff16815260200190815260200160002080549050811015610a2c57600083856103c091906115e7565b90506104016040518060400160405280601b81526020017f6e6577207769746864726177616c20696e20666f72206c6f6f703a000000000081525082610fe0565b60008060003373ffffffffffffffffffffffffffffffffffffffff1673ffffffffffffffffffffffffffffffffffffffff16815260200190815260200160002083815481106104535761045261161b565b5b90600052602060002090600202019050600081600001549050600082600101549050804210610a15576000610488838361107c565b905060008184610498919061164a565b90506104bc6040518060600160405280602281526020016119c16022913982610fe0565b85811061060b57856000803373ffffffffffffffffffffffffffffffffffffffff1673ffffffffffffffffffffffffffffffffffffffff16815260200190815260200160002088815481106105145761051361161b565b5b9060005260206000209060020201600001600082825461053491906115e7565b9250508190555085600260003373ffffffffffffffffffffffffffffffffffffffff1673ffffffffffffffffffffffffffffffffffffffff168152602001908152602001600020600082825461058a91906115e7565b925050819055506105f26040518060600160405280602181526020016119e360219139600260003373ffffffffffffffffffffffffffffffffffffffff1673ffffffffffffffffffffffffffffffffffffffff16815260200190815260200160002054610fe0565b85896105fe919061164a565b9850505050505050610a2c565b8089610617919061164a565b985061063b6040518060600160405280602f8152602001611992602f91398a610fe0565b80600260003373ffffffffffffffffffffffffffffffffffffffff1673ffffffffffffffffffffffffffffffffffffffff168152602001908152602001600020600082825461068a91906115e7565b9250508190555061070f6040518060400160405280602081526020017f746f74616c207573652062616c616e636520696e20656c736520626c6f636b3a815250600260003373ffffffffffffffffffffffffffffffffffffffff1673ffffffffffffffffffffffffffffffffffffffff16815260200190815260200160002054610fe0565b60008790505b60016000803373ffffffffffffffffffffffffffffffffffffffff1673ffffffffffffffffffffffffffffffffffffffff1681526020019081526020016000208054905061076391906115e7565b81101561085c576000803373ffffffffffffffffffffffffffffffffffffffff1673ffffffffffffffffffffffffffffffffffffffff1681526020019081526020016000206001826107b5919061164a565b815481106107c6576107c561161b565b5b90600052602060002090600202016000803373ffffffffffffffffffffffffffffffffffffffff1673ffffffffffffffffffffffffffffffffffffffff16815260200190815260200160002082815481106108245761082361161b565b5b906000526020600020906002020160008201548160000155600182015481600101559050508080610854906116a0565b915050610715565b506000803373ffffffffffffffffffffffffffffffffffffffff1673ffffffffffffffffffffffffffffffffffffffff16815260200190815260200160002060016000803373ffffffffffffffffffffffffffffffffffffffff1673ffffffffffffffffffffffffffffffffffffffff168152602001908152602001600020805490506108e991906115e7565b815481106108fa576108f961161b565b5b9060005260206000209060020201600080820160009055600182016000905550506000803373ffffffffffffffffffffffffffffffffffffffff1673ffffffffffffffffffffffffffffffffffffffff168152602001908152602001600020805480610969576109686116e9565b5b6001900381819060005260206000209060020201600080820160009055600182016000905550509055610a126040518060400160405280601b81526020017f6172726179206c656e67746820696e20656c736520626c6f636b3a00000000008152506000803373ffffffffffffffffffffffffffffffffffffffff1673ffffffffffffffffffffffffffffffffffffffff16815260200190815260200160002080549050610fe0565b50505b505050508080610a24906116a0565b915050610369565b5060008211610a70576040517f08c379a0000000000000000000000000000000000000000000000000000000008152600401610a6790611764565b60405180910390fd5b80604051806040016040528084815260200142815250908060018154018082558091505060019003906000526020600020906002020160009091909190915060008201518160000155602082015181600101555050610b046040518060400160405280601f81526020017f46696e616c20746f74616c20616d6f756e7420746f207061792d2d2d2d2d2d0081525083610fe0565b3373ffffffffffffffffffffffffffffffffffffffff166108fc839081150290604051600060405180830381858888f19350505050158015610b4a573d6000803e3d6000fd5b50505050565b6060600160008373ffffffffffffffffffffffffffffffffffffffff1673ffffffffffffffffffffffffffffffffffffffff168152602001908152602001600020805480602002602001604051908101604052809291908181526020016000905b82821015610bf757838290600052602060002090600202016040518060400160405290816000820154815260200160018201548152505081526020019060010190610bb1565b505050509050919050565b60016020528160005260406000208181548110610c1e57600080fd5b9060005260206000209060020201600091509150508060000154908060010154905082565b60606000808373ffffffffffffffffffffffffffffffffffffffff1673ffffffffffffffffffffffffffffffffffffffff168152602001908152602001600020805480602002602001604051908101604052809291908181526020016000905b82821015610ce957838290600052602060002090600202016040518060400160405290816000820154815260200160018201548152505081526020019060010190610ca3565b505050509050919050565b60026020528060005260406000206000915090505481565b6000806000905060005b6000808573ffffffffffffffffffffffffffffffffffffffff1673ffffffffffffffffffffffffffffffffffffffff16815260200190815260200160002080549050811015610e685760008060008673ffffffffffffffffffffffffffffffffffffffff1673ffffffffffffffffffffffffffffffffffffffff1681526020019081526020016000208281548110610db157610db061161b565b5b906000526020600020906002020160000154905060008060008773ffffffffffffffffffffffffffffffffffffffff1673ffffffffffffffffffffffffffffffffffffffff1681526020019081526020016000208381548110610e1757610e1661161b565b5b90600052602060002090600202016001015490506000610e37838361107c565b90508083610e45919061164a565b85610e50919061164a565b94505050508080610e60906116a0565b915050610d16565b5080915050919050565b60003411610eb5576040517f08c379a0000000000000000000000000000000000000000000000000000000008152600401610eac906117d0565b60405180910390fd5b6000803373ffffffffffffffffffffffffffffffffffffffff1673ffffffffffffffffffffffffffffffffffffffff16815260200190815260200160002060405180604001604052803481526020014281525090806001815401808255809150506001900390600052602060002090600202016000909190919091506000820151816000015560208201518160010155505034600260003373ffffffffffffffffffffffffffffffffffffffff1673ffffffffffffffffffffffffffffffffffffffff1681526020019081526020016000206000828254610f96919061164a565b92505081905550565b60006020528160005260406000208181548110610fbb57600080fd5b9060005260206000209060020201600091509150508060000154908060010154905082565b6110788282604051602401610ff6929190611878565b6040516020818303038152906040527fb60e72cc000000000000000000000000000000000000000000000000000000007bffffffffffffffffffffffffffffffffffffffffffffffffffffffff19166020820180517bffffffffffffffffffffffffffffffffffffffffffffffffffffffff83818316178352505050506110c4565b5050565b600080824261108b91906115e7565b9050600063bbf81e00826101f4876110a391906118a8565b6110ad91906118a8565b6110b79190611931565b9050809250505092915050565b6110db816110d36110de6110ff565b63ffffffff16565b50565b60006a636f6e736f6c652e6c6f679050600080835160208501845afa505050565b61110a819050919050565b611112611962565b565b6000819050919050565b61112781611114565b82525050565b6000602082019050611142600083018461111e565b92915050565b600080fd5b61115681611114565b811461116157600080fd5b50565b6000813590506111738161114d565b92915050565b60006020828403121561118f5761118e611148565b5b600061119d84828501611164565b91505092915050565b600073ffffffffffffffffffffffffffffffffffffffff82169050919050565b60006111d1826111a6565b9050919050565b6111e1816111c6565b81146111ec57600080fd5b50565b6000813590506111fe816111d8565b92915050565b60006020828403121561121a57611219611148565b5b6000611228848285016111ef565b91505092915050565b600081519050919050565b600082825260208201905092915050565b6000819050602082019050919050565b61126681611114565b82525050565b604082016000820151611282600085018261125d565b506020820151611295602085018261125d565b50505050565b60006112a7838361126c565b60408301905092915050565b6000602082019050919050565b60006112cb82611231565b6112d5818561123c565b93506112e08361124d565b8060005b838110156113115781516112f8888261129b565b9750611303836112b3565b9250506001810190506112e4565b5085935050505092915050565b6000602082019050818103600083015261133881846112c0565b905092915050565b6000806040838503121561135757611356611148565b5b6000611365858286016111ef565b925050602061137685828601611164565b9150509250929050565b6000604082019050611395600083018561111e565b6113a2602083018461111e565b9392505050565b600081519050919050565b600082825260208201905092915050565b6000819050602082019050919050565b6040820160008201516113eb600085018261125d565b5060208201516113fe602085018261125d565b50505050565b600061141083836113d5565b60408301905092915050565b6000602082019050919050565b6000611434826113a9565b61143e81856113b4565b9350611449836113c5565b8060005b8381101561147a5781516114618882611404565b975061146c8361141c565b92505060018101905061144d565b5085935050505092915050565b600060208201905081810360008301526114a18184611429565b905092915050565b600082825260208201905092915050565b7f5769746864726177616c20616d6f756e74206d7573742062652067726561746560008201527f72207468616e2030000000000000000000000000000000000000000000000000602082015250565b60006115166028836114a9565b9150611521826114ba565b604082019050919050565b6000602082019050818103600083015261154581611509565b9050919050565b7f496e73756666696369656e742062616c616e636520746f207769746864726177600082015250565b60006115826020836114a9565b915061158d8261154c565b602082019050919050565b600060208201905081810360008301526115b181611575565b9050919050565b7f4e487b7100000000000000000000000000000000000000000000000000000000600052601160045260246000fd5b60006115f282611114565b91506115fd83611114565b9250828210156116105761160f6115b8565b5b828203905092915050565b7f4e487b7100000000000000000000000000000000000000000000000000000000600052603260045260246000fd5b600061165582611114565b915061166083611114565b9250827fffffffffffffffffffffffffffffffffffffffffffffffffffffffffffffffff03821115611695576116946115b8565b5b828201905092915050565b60006116ab82611114565b91507fffffffffffffffffffffffffffffffffffffffffffffffffffffffffffffffff8214156116de576116dd6115b8565b5b600182019050919050565b7f4e487b7100000000000000000000000000000000000000000000000000000000600052603160045260246000fd5b7f5769746864726177616c206661696c6564000000000000000000000000000000600082015250565b600061174e6011836114a9565b915061175982611718565b602082019050919050565b6000602082019050818103600083015261177d81611741565b9050919050565b7f596f75206d757374206465706f73697420736f6d652066756e64730000000000600082015250565b60006117ba601b836114a9565b91506117c582611784565b602082019050919050565b600060208201905081810360008301526117e9816117ad565b9050919050565b600081519050919050565b60005b838110156118195780820151818401526020810190506117fe565b83811115611828576000848401525b50505050565b6000601f19601f8301169050919050565b600061184a826117f0565b61185481856114a9565b93506118648185602086016117fb565b61186d8161182e565b840191505092915050565b60006040820190508181036000830152611892818561183f565b90506118a1602083018461111e565b9392505050565b60006118b382611114565b91506118be83611114565b9250817fffffffffffffffffffffffffffffffffffffffffffffffffffffffffffffffff04831182151516156118f7576118f66115b8565b5b828202905092915050565b7f4e487b7100000000000000000000000000000000000000000000000000000000600052601260045260246000fd5b600061193c82611114565b915061194783611114565b92508261195757611956611902565b5b828204905092915050565b7f4e487b7100000000000000000000000000000000000000000000000000000000600052605160045260246000fdfe746f74616c20616d6f756e74207769746864726177616c20616d6f756e7420696e20656c736520626c6f636b203a20746f74616c206465706f73697420616d6f756e7420696e203120696620626c6f636b746f74616c207573652062616c616e636520696e20322069662020626c6f636b3aa26469706673582212201beaa74aee4aa51c22bc95ced991033b36cfe176db318aaba1c68cd0bc741d3364736f6c63430008090033",
  "linkReferences": {},
  "deployedLinkReferences": {}
}