{
  "_format": "hh-sol-artifact-1",
  "contractName": "Staking",
  "sourceName": "contracts/Stake.sol",
  "abi": [
    {
      "anonymous": false,
      "inputs": [
        {
          "indexed": false,
          "internalType": "string",
          "name": "message",
          "type": "string"
        }
      ],
      "name": "LogMessage",
      "type": "event"
    },
    {
      "inputs": [],
      "name": "AnnualRewardRate",
      "outputs": [
        {
          "internalType": "uint256",
          "name": "",
          "type": "uint256"
        }
      ],
      "stateMutability": "view",
      "type": "function"
    },
    {
      "inputs": [],
      "name": "claimRewardOnly",
      "outputs": [],
      "stateMutability": "nonpayable",
      "type": "function"
    },
    {
      "inputs": [
        {
          "internalType": "address",
          "name": "_address",
          "type": "address"
        }
      ],
      "name": "getStakeDetail",
      "outputs": [
        {
          "components": [
            {
              "internalType": "uint256",
              "name": "amount",
              "type": "uint256"
            },
            {
              "internalType": "uint256",
              "name": "timestamp",
              "type": "uint256"
            },
            {
              "internalType": "uint256",
              "name": "lockPeriodInDay",
              "type": "uint256"
            }
          ],
          "internalType": "struct Staking.Stake[]",
          "name": "",
          "type": "tuple[]"
        }
      ],
      "stateMutability": "view",
      "type": "function"
    },
    {
      "inputs": [
        {
          "internalType": "address",
          "name": "_address",
          "type": "address"
        }
      ],
      "name": "getUnStakeDetail",
      "outputs": [
        {
          "components": [
            {
              "internalType": "uint256",
              "name": "amount",
              "type": "uint256"
            },
            {
              "internalType": "uint256",
              "name": "timestamp",
              "type": "uint256"
            },
            {
              "internalType": "uint256",
              "name": "lockPeriodInDay",
              "type": "uint256"
            },
            {
              "internalType": "uint256",
              "name": "rewardAmount",
              "type": "uint256"
            }
          ],
          "internalType": "struct Staking.Unstake[]",
          "name": "",
          "type": "tuple[]"
        }
      ],
      "stateMutability": "view",
      "type": "function"
    },
    {
      "inputs": [
        {
          "internalType": "uint256",
          "name": "_lockperiodInDay",
          "type": "uint256"
        }
      ],
      "name": "stake",
      "outputs": [],
      "stateMutability": "payable",
      "type": "function"
    },
    {
      "inputs": [
        {
          "internalType": "address",
          "name": "",
          "type": "address"
        },
        {
          "internalType": "uint256",
          "name": "",
          "type": "uint256"
        }
      ],
      "name": "stakes",
      "outputs": [
        {
          "internalType": "uint256",
          "name": "amount",
          "type": "uint256"
        },
        {
          "internalType": "uint256",
          "name": "timestamp",
          "type": "uint256"
        },
        {
          "internalType": "uint256",
          "name": "lockPeriodInDay",
          "type": "uint256"
        }
      ],
      "stateMutability": "view",
      "type": "function"
    },
    {
      "inputs": [],
      "name": "unstake",
      "outputs": [],
      "stateMutability": "payable",
      "type": "function"
    },
    {
      "inputs": [],
      "name": "unstakeAmountBeforeLockPeriod",
      "outputs": [],
      "stateMutability": "nonpayable",
      "type": "function"
    },
    {
      "inputs": [
        {
          "internalType": "address",
          "name": "",
          "type": "address"
        },
        {
          "internalType": "uint256",
          "name": "",
          "type": "uint256"
        }
      ],
      "name": "unstakes",
      "outputs": [
        {
          "internalType": "uint256",
          "name": "amount",
          "type": "uint256"
        },
        {
          "internalType": "uint256",
          "name": "timestamp",
          "type": "uint256"
        },
        {
          "internalType": "uint256",
          "name": "lockPeriodInDay",
          "type": "uint256"
        },
        {
          "internalType": "uint256",
          "name": "rewardAmount",
          "type": "uint256"
        }
      ],
      "stateMutability": "view",
      "type": "function"
    },
    {
      "inputs": [
        {
          "internalType": "address",
          "name": "",
          "type": "address"
        }
      ],
      "name": "userTotalBalance",
      "outputs": [
        {
          "internalType": "uint256",
          "name": "",
          "type": "uint256"
        }
      ],
      "stateMutability": "view",
      "type": "function"
    },
    {
      "stateMutability": "payable",
      "type": "receive"
    }
  ],
  "bytecode": "0x608060405234801561001057600080fd5b50612497806100206000396000f3fe6080604052600436106100955760003560e01c8063821a3e6711610059578063821a3e67146101695780639e22b531146101a6578063a694fc3a146101e3578063c014a320146101ff578063dfef94b4146102165761009c565b80632c4d322f146100a15780632def6620146100b85780634ba76eee146100c25780634f983592146100ff578063584b62a11461012a5761009c565b3661009c57005b600080fd5b3480156100ad57600080fd5b506100b6610256565b005b6100c06107ee565b005b3480156100ce57600080fd5b506100e960048036038101906100e491906118cf565b610fe7565b6040516100f69190611a06565b60405180910390f35b34801561010b57600080fd5b506101146110a2565b6040516101219190611a37565b60405180910390f35b34801561013657600080fd5b50610151600480360381019061014c9190611a7e565b6110a8565b60405161016093929190611abe565b60405180910390f35b34801561017557600080fd5b50610190600480360381019061018b91906118cf565b6110ef565b60405161019d9190611a37565b60405180910390f35b3480156101b257600080fd5b506101cd60048036038101906101c891906118cf565b611107565b6040516101da9190611bf9565b60405180910390f35b6101fd60048036038101906101f89190611c1b565b6111cd565b005b34801561020b57600080fd5b50610214611388565b005b34801561022257600080fd5b5061023d60048036038101906102389190611a7e565b611635565b60405161024d9493929190611c48565b60405180910390f35b6000600260003373ffffffffffffffffffffffffffffffffffffffff1673ffffffffffffffffffffffffffffffffffffffff16815260200190815260200160002054116102d8576040517f08c379a00000000000000000000000000000000000000000000000000000000081526004016102cf90611cea565b60405180910390fd5b60005b6000803373ffffffffffffffffffffffffffffffffffffffff1673ffffffffffffffffffffffffffffffffffffffff168152602001908152602001600020805490508110156107eb5760008060003373ffffffffffffffffffffffffffffffffffffffff1673ffffffffffffffffffffffffffffffffffffffff168152602001908152602001600020828154811061037657610375611d0a565b5b906000526020600020906003020190506104046040518060400160405280601c81526020017f75736572746f74616c2062616c616e636520696e20666f723d3d3d3d00000000815250600260003373ffffffffffffffffffffffffffffffffffffffff1673ffffffffffffffffffffffffffffffffffffffff16815260200190815260200160002054611682565b600081600001549050600082600101549050600083600201549050808261042b9190611d68565b421015610733576000600160003373ffffffffffffffffffffffffffffffffffffffff1673ffffffffffffffffffffffffffffffffffffffff16815260200190815260200160002060405180608001604052808681526020014281526020018481526020018381525090806001815401808255809150506001900390600052602060002090600402016000909190919091506000820151816000015560208201518160010155604082015181600201556060820151816003015550503373ffffffffffffffffffffffffffffffffffffffff166108fc859081150290604051600060405180830381858888f1935050505015801561052d573d6000803e3d6000fd5b5083600260003373ffffffffffffffffffffffffffffffffffffffff1673ffffffffffffffffffffffffffffffffffffffff168152602001908152602001600020600082825461057d9190611dbe565b925050819055506000803373ffffffffffffffffffffffffffffffffffffffff1673ffffffffffffffffffffffffffffffffffffffff16815260200190815260200160002060016000803373ffffffffffffffffffffffffffffffffffffffff1673ffffffffffffffffffffffffffffffffffffffff168152602001908152602001600020805490506106109190611dbe565b8154811061062157610620611d0a565b5b90600052602060002090600302016000803373ffffffffffffffffffffffffffffffffffffffff1673ffffffffffffffffffffffffffffffffffffffff168152602001908152602001600020878154811061067f5761067e611d0a565b5b90600052602060002090600302016000820154816000015560018201548160010155600282015481600201559050506000803373ffffffffffffffffffffffffffffffffffffffff1673ffffffffffffffffffffffffffffffffffffffff1681526020019081526020016000208054806106fc576106fb611df2565b5b6001900381819060005260206000209060030201600080820160009055600182016000905560028201600090555050905550610764565b6107556040518060600160405280602981526020016124396029913986611682565b848061076090611e21565b9550505b6107e26040518060400160405280601e81526020017f75736572746f74616c2062616c616e63652061667465722069663d3d3d3d0000815250600260003373ffffffffffffffffffffffffffffffffffffffff1673ffffffffffffffffffffffffffffffffffffffff16815260200190815260200160002054611682565b505050506102db565b50565b6000600260003373ffffffffffffffffffffffffffffffffffffffff1673ffffffffffffffffffffffffffffffffffffffff1681526020019081526020016000205411610870576040517f08c379a000000000000000000000000000000000000000000000000000000000815260040161086790611cea565b60405180910390fd5b60005b6000803373ffffffffffffffffffffffffffffffffffffffff1673ffffffffffffffffffffffffffffffffffffffff16815260200190815260200160002080549050811015610fe45760008060003373ffffffffffffffffffffffffffffffffffffffff1673ffffffffffffffffffffffffffffffffffffffff168152602001908152602001600020828154811061090e5761090d611d0a565b5b9060005260206000209060030201905061099c6040518060400160405280601c81526020017f75736572746f74616c2062616c616e636520696e20666f723d3d3d3d00000000815250600260003373ffffffffffffffffffffffffffffffffffffffff1673ffffffffffffffffffffffffffffffffffffffff16815260200190815260200160002054611682565b6000816000015490506000826001015490506000836002015490506109f66040518060400160405280601281526020017f7374616b65616d6f756e743d3d3d3d3d3d3d000000000000000000000000000081525084611682565b610a356040518060400160405280601481526020017f7374616b6574696d657374616d703d3d3d3d3d3d00000000000000000000000081525083611682565b610a746040518060400160405280601d81526020017f7374616b656c6f636b506572696f64496e4461793d3d3d3d3d3d3d3d3d00000081525082611682565b8082610a809190611d68565b4210610f2c576000610a9384848461171e565b9050610ad46040518060400160405280601181526020017f52657761726420416d6f756e743d3d3d3d00000000000000000000000000000081525082611682565b7f96561394bac381230de4649200e8831afcab1f451881bbade9ef209f6dd30480604051610b0190611eb6565b60405180910390a160008185610b179190611d68565b90507f96561394bac381230de4649200e8831afcab1f451881bbade9ef209f6dd30480604051610b4690611f22565b60405180910390a1610b8d6040518060400160405280601881526020017f546f74616c205374616b6520416d6f756e743d3d3d3d3d3d000000000000000081525082611682565b7f96561394bac381230de4649200e8831afcab1f451881bbade9ef209f6dd30480604051610bba90611f8e565b60405180910390a1600160003373ffffffffffffffffffffffffffffffffffffffff1673ffffffffffffffffffffffffffffffffffffffff16815260200190815260200160002060405180608001604052808781526020014281526020018581526020018481525090806001815401808255809150506001900390600052602060002090600402016000909190919091506000820151816000015560208201518160010155604082015181600201556060820151816003015550507f96561394bac381230de4649200e8831afcab1f451881bbade9ef209f6dd30480604051610ca290611ffa565b60405180910390a16000803373ffffffffffffffffffffffffffffffffffffffff1673ffffffffffffffffffffffffffffffffffffffff16815260200190815260200160002060016000803373ffffffffffffffffffffffffffffffffffffffff1673ffffffffffffffffffffffffffffffffffffffff16815260200190815260200160002080549050610d369190611dbe565b81548110610d4757610d46611d0a565b5b90600052602060002090600302016000803373ffffffffffffffffffffffffffffffffffffffff1673ffffffffffffffffffffffffffffffffffffffff1681526020019081526020016000208881548110610da557610da4611d0a565b5b90600052602060002090600302016000820154816000015560018201548160010155600282015481600201559050506000803373ffffffffffffffffffffffffffffffffffffffff1673ffffffffffffffffffffffffffffffffffffffff168152602001908152602001600020805480610e2257610e21611df2565b5b600190038181906000526020600020906003020160008082016000905560018201600090556002820160009055505090553373ffffffffffffffffffffffffffffffffffffffff166108fc829081150290604051600060405180830381858888f19350505050158015610e99573d6000803e3d6000fd5b507f96561394bac381230de4649200e8831afcab1f451881bbade9ef209f6dd30480604051610ec790612066565b60405180910390a180600260003373ffffffffffffffffffffffffffffffffffffffff1673ffffffffffffffffffffffffffffffffffffffff1681526020019081526020016000206000828254610f1e9190611dbe565b925050819055505050610f5d565b610f4e6040518060600160405280603181526020016124086031913986611682565b8480610f5990611e21565b9550505b610fdb6040518060400160405280601e81526020017f75736572746f74616c2062616c616e63652061667465722069663d3d3d3d0000815250600260003373ffffffffffffffffffffffffffffffffffffffff1673ffffffffffffffffffffffffffffffffffffffff16815260200190815260200160002054611682565b50505050610873565b50565b60606000808373ffffffffffffffffffffffffffffffffffffffff1673ffffffffffffffffffffffffffffffffffffffff168152602001908152602001600020805480602002602001604051908101604052809291908181526020016000905b828210156110975783829060005260206000209060030201604051806060016040529081600082015481526020016001820154815260200160028201548152505081526020019060010190611047565b505050509050919050565b6101f481565b600060205281600052604060002081815481106110c457600080fd5b9060005260206000209060030201600091509150508060000154908060010154908060020154905083565b60026020528060005260406000206000915090505481565b6060600160008373ffffffffffffffffffffffffffffffffffffffff1673ffffffffffffffffffffffffffffffffffffffff168152602001908152602001600020805480602002602001604051908101604052809291908181526020016000905b828210156111c2578382906000526020600020906004020160405180608001604052908160008201548152602001600182015481526020016002820154815260200160038201548152505081526020019060010190611168565b505050509050919050565b60003411611210576040517f08c379a0000000000000000000000000000000000000000000000000000000008152600401611207906120d2565b60405180910390fd5b60008111611253576040517f08c379a000000000000000000000000000000000000000000000000000000000815260040161124a90612164565b60405180910390fd5b600062015180826112649190612184565b90506112886040518060600160405280602381526020016123e56023913982611682565b6000803373ffffffffffffffffffffffffffffffffffffffff1673ffffffffffffffffffffffffffffffffffffffff1681526020019081526020016000206040518060600160405280348152602001636503d9368152602001838152509080600181540180825580915050600190039060005260206000209060030201600090919091909150600082015181600001556020820151816001015560408201518160020155505034600260003373ffffffffffffffffffffffffffffffffffffffff1673ffffffffffffffffffffffffffffffffffffffff168152602001908152602001600020600082825461137d9190611d68565b925050819055505050565b6000600260003373ffffffffffffffffffffffffffffffffffffffff1673ffffffffffffffffffffffffffffffffffffffff168152602001908152602001600020541161140a576040517f08c379a00000000000000000000000000000000000000000000000000000000081526004016114019061222a565b60405180910390fd5b60005b6000803373ffffffffffffffffffffffffffffffffffffffff1673ffffffffffffffffffffffffffffffffffffffff168152602001908152602001600020805490508110156116325760008060003373ffffffffffffffffffffffffffffffffffffffff1673ffffffffffffffffffffffffffffffffffffffff16815260200190815260200160002082815481106114a8576114a7611d0a565b5b9060005260206000209060030201905060008160000154905060008260010154905060008360020154905080826114df9190611d68565b421061161b5760006114f284848461171e565b905061156a6040518060400160405280601581526020017f436163756c617465642072657761726420666f72200000000000000000000000815250876040518060400160405280600e81526020017f6973202d2d2d2d2d2d2d2d2d2d2d0000000000000000000000000000000000008152508461177a565b3373ffffffffffffffffffffffffffffffffffffffff166108fc829081150290604051600060405180830381858888f193505050501580156115b0573d6000803e3d6000fd5b5080600260003373ffffffffffffffffffffffffffffffffffffffff1673ffffffffffffffffffffffffffffffffffffffff16815260200190815260200160002060008282546116009190611d68565b92505081905550838560000181905550428560010181905550505b50505050808061162a90611e21565b91505061140d565b50565b6001602052816000526040600020818154811061165157600080fd5b9060005260206000209060040201600091509150508060000154908060010154908060020154908060030154905084565b61171a82826040516024016116989291906122d2565b6040516020818303038152906040527fb60e72cc000000000000000000000000000000000000000000000000000000007bffffffffffffffffffffffffffffffffffffffffffffffffffffffff19166020820180517bffffffffffffffffffffffffffffffffffffffffffffffffffffffff838183161783525050505061181c565b5050565b600080834261172d9190611dbe565b905082811015611741576000915050611773565b600063bbf81e00846101f4886117579190612184565b6117619190612184565b61176b9190612331565b905080925050505b9392505050565b611816848484846040516024016117949493929190612362565b6040516020818303038152906040527fc67ea9d1000000000000000000000000000000000000000000000000000000007bffffffffffffffffffffffffffffffffffffffffffffffffffffffff19166020820180517bffffffffffffffffffffffffffffffffffffffffffffffffffffffff838183161783525050505061181c565b50505050565b6118338161182b611836611857565b63ffffffff16565b50565b60006a636f6e736f6c652e6c6f679050600080835160208501845afa505050565b611862819050919050565b61186a6123b5565b565b600080fd5b600073ffffffffffffffffffffffffffffffffffffffff82169050919050565b600061189c82611871565b9050919050565b6118ac81611891565b81146118b757600080fd5b50565b6000813590506118c9816118a3565b92915050565b6000602082840312156118e5576118e461186c565b5b60006118f3848285016118ba565b91505092915050565b600081519050919050565b600082825260208201905092915050565b6000819050602082019050919050565b6000819050919050565b61193b81611928565b82525050565b6060820160008201516119576000850182611932565b50602082015161196a6020850182611932565b50604082015161197d6040850182611932565b50505050565b600061198f8383611941565b60608301905092915050565b6000602082019050919050565b60006119b3826118fc565b6119bd8185611907565b93506119c883611918565b8060005b838110156119f95781516119e08882611983565b97506119eb8361199b565b9250506001810190506119cc565b5085935050505092915050565b60006020820190508181036000830152611a2081846119a8565b905092915050565b611a3181611928565b82525050565b6000602082019050611a4c6000830184611a28565b92915050565b611a5b81611928565b8114611a6657600080fd5b50565b600081359050611a7881611a52565b92915050565b60008060408385031215611a9557611a9461186c565b5b6000611aa3858286016118ba565b9250506020611ab485828601611a69565b9150509250929050565b6000606082019050611ad36000830186611a28565b611ae06020830185611a28565b611aed6040830184611a28565b949350505050565b600081519050919050565b600082825260208201905092915050565b6000819050602082019050919050565b608082016000820151611b376000850182611932565b506020820151611b4a6020850182611932565b506040820151611b5d6040850182611932565b506060820151611b706060850182611932565b50505050565b6000611b828383611b21565b60808301905092915050565b6000602082019050919050565b6000611ba682611af5565b611bb08185611b00565b9350611bbb83611b11565b8060005b83811015611bec578151611bd38882611b76565b9750611bde83611b8e565b925050600181019050611bbf565b5085935050505092915050565b60006020820190508181036000830152611c138184611b9b565b905092915050565b600060208284031215611c3157611c3061186c565b5b6000611c3f84828501611a69565b91505092915050565b6000608082019050611c5d6000830187611a28565b611c6a6020830186611a28565b611c776040830185611a28565b611c846060830184611a28565b95945050505050565b600082825260208201905092915050565b7f4e6f2046756e647320746f207769746864726177000000000000000000000000600082015250565b6000611cd4601483611c8d565b9150611cdf82611c9e565b602082019050919050565b60006020820190508181036000830152611d0381611cc7565b9050919050565b7f4e487b7100000000000000000000000000000000000000000000000000000000600052603260045260246000fd5b7f4e487b7100000000000000000000000000000000000000000000000000000000600052601160045260246000fd5b6000611d7382611928565b9150611d7e83611928565b9250827fffffffffffffffffffffffffffffffffffffffffffffffffffffffffffffffff03821115611db357611db2611d39565b5b828201905092915050565b6000611dc982611928565b9150611dd483611928565b925082821015611de757611de6611d39565b5b828203905092915050565b7f4e487b7100000000000000000000000000000000000000000000000000000000600052603160045260246000fd5b6000611e2c82611928565b91507fffffffffffffffffffffffffffffffffffffffffffffffffffffffffffffffff821415611e5f57611e5e611d39565b5b600182019050919050565b7f6265666f726520746f74616c5374616b65416d6f756e74000000000000000000600082015250565b6000611ea0601783611c8d565b9150611eab82611e6a565b602082019050919050565b60006020820190508181036000830152611ecf81611e93565b9050919050565b7f61667465722020746f74616c5374616b65416d6f756e74000000000000000000600082015250565b6000611f0c601783611c8d565b9150611f1782611ed6565b602082019050919050565b60006020820190508181036000830152611f3b81611eff565b9050919050565b7f6265666f726520756e7374616b65000000000000000000000000000000000000600082015250565b6000611f78600e83611c8d565b9150611f8382611f42565b602082019050919050565b60006020820190508181036000830152611fa781611f6b565b9050919050565b7f616674657220756e7374616b6500000000000000000000000000000000000000600082015250565b6000611fe4600d83611c8d565b9150611fef82611fae565b602082019050919050565b6000602082019050818103600083015261201381611fd7565b9050919050565b7f61667465722070617961626c6500000000000000000000000000000000000000600082015250565b6000612050600d83611c8d565b915061205b8261201a565b602082019050919050565b6000602082019050818103600083015261207f81612043565b9050919050565b7f596f75206d757374205374616b6520736f6d652066756e647300000000000000600082015250565b60006120bc601983611c8d565b91506120c782612086565b602082019050919050565b600060208201905081810360008301526120eb816120af565b9050919050565b7f4c6f636b20506572696f64206d7573742062652067726561746572207468656e60008201527f2030000000000000000000000000000000000000000000000000000000000000602082015250565b600061214e602283611c8d565b9150612159826120f2565b604082019050919050565b6000602082019050818103600083015261217d81612141565b9050919050565b600061218f82611928565b915061219a83611928565b9250817fffffffffffffffffffffffffffffffffffffffffffffffffffffffffffffffff04831182151516156121d3576121d2611d39565b5b828202905092915050565b7f4e6f2046756e647320746f20636c61696d000000000000000000000000000000600082015250565b6000612214601183611c8d565b915061221f826121de565b602082019050919050565b6000602082019050818103600083015261224381612207565b9050919050565b600081519050919050565b60005b83811015612273578082015181840152602081019050612258565b83811115612282576000848401525b50505050565b6000601f19601f8301169050919050565b60006122a48261224a565b6122ae8185611c8d565b93506122be818560208601612255565b6122c781612288565b840191505092915050565b600060408201905081810360008301526122ec8185612299565b90506122fb6020830184611a28565b9392505050565b7f4e487b7100000000000000000000000000000000000000000000000000000000600052601260045260246000fd5b600061233c82611928565b915061234783611928565b92508261235757612356612302565b5b828204905092915050565b6000608082019050818103600083015261237c8187612299565b905061238b6020830186611a28565b818103604083015261239d8185612299565b90506123ac6060830184611a28565b95945050505050565b7f4e487b7100000000000000000000000000000000000000000000000000000000600052605160045260246000fdfe4c6f636b20706572696f642074696d6520696e207365636f6e643a3a3a3a3a3a3a3a3a5374616b65206e6f74206d6174757265642079657420666f72207468697320696e6465783a3a3a3a3a3a3a3a3a3a3a3a3a5374616b6520686173206e6f74206d6174757265642079657420666f72207468697320696e6465783aa264697066735822122020abe692c01996e2d7506d85f8ff9a39c5e303fec2213f717ea784a8b633cd6d64736f6c63430008090033",
  "linkReferences": {},
  "deployedLinkReferences": {}
}